{
  "_format": "hh-sol-artifact-1",
  "contractName": "VickreyAuction",
  "sourceName": "contracts/VickeryAuction.sol",
  "abi": [
    {
      "anonymous": false,
      "inputs": [
        {
          "indexed": true,
          "internalType": "uint256",
          "name": "auctionId",
          "type": "uint256"
        },
        {
          "indexed": true,
          "internalType": "address",
          "name": "seller",
          "type": "address"
        },
        {
          "indexed": false,
          "internalType": "uint256",
          "name": "tokenId",
          "type": "uint256"
        }
      ],
      "name": "AuctionCreated",
      "type": "event"
    },
    {
      "anonymous": false,
      "inputs": [
        {
          "indexed": true,
          "internalType": "uint256",
          "name": "auctionId",
          "type": "uint256"
        },
        {
          "indexed": false,
          "internalType": "address",
          "name": "winner",
          "type": "address"
        },
        {
          "indexed": false,
          "internalType": "uint256",
          "name": "amount",
          "type": "uint256"
        }
      ],
      "name": "AuctionEnded",
      "type": "event"
    },
    {
      "anonymous": false,
      "inputs": [
        {
          "indexed": true,
          "internalType": "uint256",
          "name": "auctionId",
          "type": "uint256"
        },
        {
          "indexed": true,
          "internalType": "address",
          "name": "bidder",
          "type": "address"
        },
        {
          "indexed": false,
          "internalType": "uint256",
          "name": "amount",
          "type": "uint256"
        }
      ],
      "name": "BidRevealed",
      "type": "event"
    },
    {
      "anonymous": false,
      "inputs": [
        {
          "indexed": true,
          "internalType": "uint256",
          "name": "auctionId",
          "type": "uint256"
        },
        {
          "indexed": true,
          "internalType": "address",
          "name": "bidder",
          "type": "address"
        }
      ],
      "name": "BidSubmitted",
      "type": "event"
    },
    {
      "inputs": [
        {
          "internalType": "address",
          "name": "",
          "type": "address"
        },
        {
          "internalType": "uint256",
          "name": "",
          "type": "uint256"
        }
      ],
      "name": "auctionIdByToken",
      "outputs": [
        {
          "internalType": "uint256",
          "name": "",
          "type": "uint256"
        }
      ],
      "stateMutability": "view",
      "type": "function"
    },
    {
      "inputs": [
        {
          "internalType": "uint256",
          "name": "",
          "type": "uint256"
        }
      ],
      "name": "auctions",
      "outputs": [
        {
          "internalType": "address",
          "name": "seller",
          "type": "address"
        },
        {
          "internalType": "uint256",
          "name": "minBid",
          "type": "uint256"
        },
        {
          "internalType": "uint256",
          "name": "auctionEndTime",
          "type": "uint256"
        },
        {
          "internalType": "uint256",
          "name": "revealEndTime",
          "type": "uint256"
        },
        {
          "internalType": "bool",
          "name": "ended",
          "type": "bool"
        },
        {
          "internalType": "contract IERC721",
          "name": "nft",
          "type": "address"
        },
        {
          "internalType": "uint256",
          "name": "tokenId",
          "type": "uint256"
        },
        {
          "internalType": "address",
          "name": "highestBidder",
          "type": "address"
        },
        {
          "internalType": "uint256",
          "name": "secondHighestBid",
          "type": "uint256"
        }
      ],
      "stateMutability": "view",
      "type": "function"
    },
    {
      "inputs": [
        {
          "internalType": "address",
          "name": "nftAddress",
          "type": "address"
        },
        {
          "internalType": "uint256",
          "name": "tokenId",
          "type": "uint256"
        },
        {
          "internalType": "uint256",
          "name": "minBid",
          "type": "uint256"
        },
        {
          "internalType": "uint256",
          "name": "auctionDuration",
          "type": "uint256"
        },
        {
          "internalType": "uint256",
          "name": "revealDuration",
          "type": "uint256"
        }
      ],
      "name": "createAuction",
      "outputs": [],
      "stateMutability": "nonpayable",
      "type": "function"
    },
    {
      "inputs": [
        {
          "internalType": "uint256",
          "name": "auctionId",
          "type": "uint256"
        }
      ],
      "name": "endAuction",
      "outputs": [],
      "stateMutability": "nonpayable",
      "type": "function"
    },
    {
      "inputs": [
        {
          "internalType": "address",
          "name": "nftAddress",
          "type": "address"
        },
        {
          "internalType": "uint256",
          "name": "tokenId",
          "type": "uint256"
        }
      ],
      "name": "getAuctionByTokenId",
      "outputs": [
        {
          "internalType": "uint256",
          "name": "",
          "type": "uint256"
        }
      ],
      "stateMutability": "view",
      "type": "function"
    },
    {
      "inputs": [
        {
          "internalType": "uint256",
          "name": "auctionId",
          "type": "uint256"
        }
      ],
      "name": "getAuctionDetails",
      "outputs": [
        {
          "internalType": "address",
          "name": "seller",
          "type": "address"
        },
        {
          "internalType": "uint256",
          "name": "minBid",
          "type": "uint256"
        },
        {
          "internalType": "uint256",
          "name": "auctionEndTime",
          "type": "uint256"
        },
        {
          "internalType": "uint256",
          "name": "revealEndTime",
          "type": "uint256"
        },
        {
          "internalType": "bool",
          "name": "ended",
          "type": "bool"
        },
        {
          "internalType": "address",
          "name": "nftAddress",
          "type": "address"
        },
        {
          "internalType": "uint256",
          "name": "tokenId",
          "type": "uint256"
        },
        {
          "internalType": "address",
          "name": "highestBidder",
          "type": "address"
        },
        {
          "internalType": "uint256",
          "name": "secondHighestBid",
          "type": "uint256"
        }
      ],
      "stateMutability": "view",
      "type": "function"
    },
    {
      "inputs": [],
      "name": "nextAuctionId",
      "outputs": [
        {
          "internalType": "uint256",
          "name": "",
          "type": "uint256"
        }
      ],
      "stateMutability": "view",
      "type": "function"
    },
    {
      "inputs": [
        {
          "internalType": "address",
          "name": "",
          "type": "address"
        },
        {
          "internalType": "address",
          "name": "",
          "type": "address"
        },
        {
          "internalType": "uint256",
          "name": "",
          "type": "uint256"
        },
        {
          "internalType": "bytes",
          "name": "",
          "type": "bytes"
        }
      ],
      "name": "onERC721Received",
      "outputs": [
        {
          "internalType": "bytes4",
          "name": "",
          "type": "bytes4"
        }
      ],
      "stateMutability": "pure",
      "type": "function"
    },
    {
      "inputs": [
        {
          "internalType": "uint256",
          "name": "auctionId",
          "type": "uint256"
        },
        {
          "internalType": "uint256",
          "name": "amount",
          "type": "uint256"
        },
        {
          "internalType": "bytes32",
          "name": "secret",
          "type": "bytes32"
        }
      ],
      "name": "revealBid",
      "outputs": [],
      "stateMutability": "nonpayable",
      "type": "function"
    },
    {
      "inputs": [
        {
          "internalType": "uint256",
          "name": "auctionId",
          "type": "uint256"
        },
        {
          "internalType": "bytes32",
          "name": "bid",
          "type": "bytes32"
        }
      ],
      "name": "submitBid",
      "outputs": [],
      "stateMutability": "payable",
      "type": "function"
    }
  ],
  "bytecode": "0x608060405234801561001057600080fd5b506001600081905550611d13806100286000396000f3fe6080604052600436106100915760003560e01c80638d64565e116100595780638d64565e1461019a578063961c9ae4146101d7578063b9a2de3a14610200578063f20e5e3514610229578063fc5284821461026e57610091565b806302bb856114610096578063150b7a02146100d357806319fcfab1146101105780634d380a0d1461012c578063571a26a014610155575b600080fd5b3480156100a257600080fd5b506100bd60048036038101906100b89190611124565b610299565b6040516100ca9190611173565b60405180910390f35b3480156100df57600080fd5b506100fa60048036038101906100f591906111f3565b6102be565b60405161010791906112b6565b60405180910390f35b61012a60048036038101906101259190611307565b6102d3565b005b34801561013857600080fd5b50610153600480360381019061014e9190611347565b6103bf565b005b34801561016157600080fd5b5061017c6004803603810190610177919061139a565b6106d0565b60405161019199989796959493929190611450565b60405180910390f35b3480156101a657600080fd5b506101c160048036038101906101bc9190611124565b61078b565b6040516101ce9190611173565b60405180910390f35b3480156101e357600080fd5b506101fe60048036038101906101f991906114dd565b6107e6565b005b34801561020c57600080fd5b506102276004803603810190610222919061139a565b610b31565b005b34801561023557600080fd5b50610250600480360381019061024b919061139a565b610f49565b60405161026599989796959493929190611558565b60405180910390f35b34801561027a57600080fd5b50610283611027565b6040516102909190611173565b60405180910390f35b6003602052816000526040600020602052806000526040600020600091509150505481565b600063150b7a0260e01b905095945050505050565b600060026000848152602001908152602001600020905080600201544210610330576040517f08c379a000000000000000000000000000000000000000000000000000000000815260040161032790611642565b60405180910390fd5b818160080160003373ffffffffffffffffffffffffffffffffffffffff1673ffffffffffffffffffffffffffffffffffffffff168152602001908152602001600020819055503373ffffffffffffffffffffffffffffffffffffffff16837f14f32a2464bd02d81cc866ab8a4ab09360c685fc8156837dcdf398208674d12b60405160405180910390a3505050565b6103c761102d565b600060026000858152602001908152602001600020905080600201544211610424576040517f08c379a000000000000000000000000000000000000000000000000000000000815260040161041b906116d4565b60405180910390fd5b8060030154421061046a576040517f08c379a000000000000000000000000000000000000000000000000000000000815260040161046190611740565b60405180910390fd5b6000838360405160200161047f9291906117a2565b604051602081830303815290604052805190602001209050808260080160003373ffffffffffffffffffffffffffffffffffffffff1673ffffffffffffffffffffffffffffffffffffffff168152602001908152602001600020541461051a576040517f08c379a00000000000000000000000000000000000000000000000000000000081526004016105119061181a565b60405180910390fd5b816001015484111561067257816007015484111561064b57600073ffffffffffffffffffffffffffffffffffffffff168260060160009054906101000a900473ffffffffffffffffffffffffffffffffffffffff1673ffffffffffffffffffffffffffffffffffffffff16146105fa578160060160009054906101000a900473ffffffffffffffffffffffffffffffffffffffff1673ffffffffffffffffffffffffffffffffffffffff166108fc83600701549081150290604051600060405180830381858888f193505050501580156105f8573d6000803e3d6000fd5b505b838260070181905550338260060160006101000a81548173ffffffffffffffffffffffffffffffffffffffff021916908373ffffffffffffffffffffffffffffffffffffffff160217905550610671565b8160010154841180156106615750816007015484105b15610670578382600701819055505b5b5b3373ffffffffffffffffffffffffffffffffffffffff16857f86d2fbc9069d34216ebc65b38ce840528d3f8cac0c86d2aaa7ab6a9db8bc35d3866040516106b99190611173565b60405180910390a350506106cb61107c565b505050565b60026020528060005260406000206000915090508060000160009054906101000a900473ffffffffffffffffffffffffffffffffffffffff16908060010154908060020154908060030154908060040160009054906101000a900460ff16908060040160019054906101000a900473ffffffffffffffffffffffffffffffffffffffff16908060050154908060060160009054906101000a900473ffffffffffffffffffffffffffffffffffffffff16908060070154905089565b6000600360008473ffffffffffffffffffffffffffffffffffffffff1673ffffffffffffffffffffffffffffffffffffffff168152602001908152602001600020600083815260200190815260200160002054905092915050565b60008590503373ffffffffffffffffffffffffffffffffffffffff168173ffffffffffffffffffffffffffffffffffffffff16636352211e876040518263ffffffff1660e01b815260040161083b9190611173565b602060405180830381865afa158015610858573d6000803e3d6000fd5b505050506040513d601f19601f8201168201806040525081019061087c919061184f565b73ffffffffffffffffffffffffffffffffffffffff16146108d2576040517f08c379a00000000000000000000000000000000000000000000000000000000081526004016108c9906118c8565b60405180910390fd5b8073ffffffffffffffffffffffffffffffffffffffff1663e985e9c533306040518363ffffffff1660e01b815260040161090d9291906118e8565b602060405180830381865afa15801561092a573d6000803e3d6000fd5b505050506040513d601f19601f8201168201806040525081019061094e919061193d565b61098d576040517f08c379a0000000000000000000000000000000000000000000000000000000008152600401610984906119dc565b60405180910390fd5b6000600160008154809291906109a290611a2b565b9190505590506000600260008381526020019081526020016000209050338160000160006101000a81548173ffffffffffffffffffffffffffffffffffffffff021916908373ffffffffffffffffffffffffffffffffffffffff1602179055508581600101819055508442610a179190611a73565b8160020181905550838160020154610a2f9190611a73565b8160030181905550828160040160016101000a81548173ffffffffffffffffffffffffffffffffffffffff021916908373ffffffffffffffffffffffffffffffffffffffff16021790555086816005018190555081600360008a73ffffffffffffffffffffffffffffffffffffffff1673ffffffffffffffffffffffffffffffffffffffff1681526020019081526020016000206000898152602001908152602001600020819055503373ffffffffffffffffffffffffffffffffffffffff16827f6ff530872708bbb51bad8ea341564e4ea039807ad1331f61ab4c906a66875daf89604051610b1f9190611173565b60405180910390a35050505050505050565b610b3961102d565b60006002600083815260200190815260200160002090508060030154421015610b97576040517f08c379a0000000000000000000000000000000000000000000000000000000008152600401610b8e90611af3565b60405180910390fd5b8060040160009054906101000a900460ff1615610be9576040517f08c379a0000000000000000000000000000000000000000000000000000000008152600401610be090611b5f565b60405180910390fd5b3373ffffffffffffffffffffffffffffffffffffffff168160000160009054906101000a900473ffffffffffffffffffffffffffffffffffffffff1673ffffffffffffffffffffffffffffffffffffffff1614610c7b576040517f08c379a0000000000000000000000000000000000000000000000000000000008152600401610c7290611bf1565b60405180910390fd5b60018160040160006101000a81548160ff021916908315150217905550600073ffffffffffffffffffffffffffffffffffffffff168160060160009054906101000a900473ffffffffffffffffffffffffffffffffffffffff1673ffffffffffffffffffffffffffffffffffffffff1614610e1f578060040160019054906101000a900473ffffffffffffffffffffffffffffffffffffffff1673ffffffffffffffffffffffffffffffffffffffff166342842e0e308360060160009054906101000a900473ffffffffffffffffffffffffffffffffffffffff1684600501546040518463ffffffff1660e01b8152600401610d7993929190611c11565b600060405180830381600087803b158015610d9357600080fd5b505af1158015610da7573d6000803e3d6000fd5b505050508060000160009054906101000a900473ffffffffffffffffffffffffffffffffffffffff1673ffffffffffffffffffffffffffffffffffffffff166108fc82600701549081150290604051600060405180830381858888f19350505050158015610e19573d6000803e3d6000fd5b50610edb565b8060040160019054906101000a900473ffffffffffffffffffffffffffffffffffffffff1673ffffffffffffffffffffffffffffffffffffffff166342842e0e308360000160009054906101000a900473ffffffffffffffffffffffffffffffffffffffff1684600501546040518463ffffffff1660e01b8152600401610ea893929190611c11565b600060405180830381600087803b158015610ec257600080fd5b505af1158015610ed6573d6000803e3d6000fd5b505050505b817fd2aa34a4fdbbc6dff6a3e56f46e0f3ae2a31d7785ff3487aa5c95c642acea5018260060160009054906101000a900473ffffffffffffffffffffffffffffffffffffffff168360070154604051610f35929190611c48565b60405180910390a250610f4661107c565b50565b600080600080600080600080600080600260008c815260200190815260200160002090508060000160009054906101000a900473ffffffffffffffffffffffffffffffffffffffff168160010154826002015483600301548460040160009054906101000a900460ff168560040160019054906101000a900473ffffffffffffffffffffffffffffffffffffffff1686600501548760060160009054906101000a900473ffffffffffffffffffffffffffffffffffffffff168860070154995099509950995099509950995099509950509193959799909294969850565b60015481565b600260005403611072576040517f08c379a000000000000000000000000000000000000000000000000000000000815260040161106990611cbd565b60405180910390fd5b6002600081905550565b6001600081905550565b600080fd5b600080fd5b600073ffffffffffffffffffffffffffffffffffffffff82169050919050565b60006110bb82611090565b9050919050565b6110cb816110b0565b81146110d657600080fd5b50565b6000813590506110e8816110c2565b92915050565b6000819050919050565b611101816110ee565b811461110c57600080fd5b50565b60008135905061111e816110f8565b92915050565b6000806040838503121561113b5761113a611086565b5b6000611149858286016110d9565b925050602061115a8582860161110f565b9150509250929050565b61116d816110ee565b82525050565b60006020820190506111886000830184611164565b92915050565b600080fd5b600080fd5b600080fd5b60008083601f8401126111b3576111b261118e565b5b8235905067ffffffffffffffff8111156111d0576111cf611193565b5b6020830191508360018202830111156111ec576111eb611198565b5b9250929050565b60008060008060006080868803121561120f5761120e611086565b5b600061121d888289016110d9565b955050602061122e888289016110d9565b945050604061123f8882890161110f565b935050606086013567ffffffffffffffff8111156112605761125f61108b565b5b61126c8882890161119d565b92509250509295509295909350565b60007fffffffff0000000000000000000000000000000000000000000000000000000082169050919050565b6112b08161127b565b82525050565b60006020820190506112cb60008301846112a7565b92915050565b6000819050919050565b6112e4816112d1565b81146112ef57600080fd5b50565b600081359050611301816112db565b92915050565b6000806040838503121561131e5761131d611086565b5b600061132c8582860161110f565b925050602061133d858286016112f2565b9150509250929050565b6000806000606084860312156113605761135f611086565b5b600061136e8682870161110f565b935050602061137f8682870161110f565b9250506040611390868287016112f2565b9150509250925092565b6000602082840312156113b0576113af611086565b5b60006113be8482850161110f565b91505092915050565b6113d0816110b0565b82525050565b60008115159050919050565b6113eb816113d6565b82525050565b6000819050919050565b600061141661141161140c84611090565b6113f1565b611090565b9050919050565b6000611428826113fb565b9050919050565b600061143a8261141d565b9050919050565b61144a8161142f565b82525050565b600061012082019050611466600083018c6113c7565b611473602083018b611164565b611480604083018a611164565b61148d6060830189611164565b61149a60808301886113e2565b6114a760a0830187611441565b6114b460c0830186611164565b6114c160e08301856113c7565b6114cf610100830184611164565b9a9950505050505050505050565b600080600080600060a086880312156114f9576114f8611086565b5b6000611507888289016110d9565b95505060206115188882890161110f565b94505060406115298882890161110f565b935050606061153a8882890161110f565b925050608061154b8882890161110f565b9150509295509295909350565b60006101208201905061156e600083018c6113c7565b61157b602083018b611164565b611588604083018a611164565b6115956060830189611164565b6115a260808301886113e2565b6115af60a08301876113c7565b6115bc60c0830186611164565b6115c960e08301856113c7565b6115d7610100830184611164565b9a9950505050505050505050565b600082825260208201905092915050565b7f41756374696f6e2062696464696e672074696d652068617320656e6465640000600082015250565b600061162c601e836115e5565b9150611637826115f6565b602082019050919050565b6000602082019050818103600083015261165b8161161f565b9050919050565b7f41756374696f6e2062696464696e672074696d6520686173206e6f7420656e6460008201527f6564000000000000000000000000000000000000000000000000000000000000602082015250565b60006116be6022836115e5565b91506116c982611662565b604082019050919050565b600060208201905081810360008301526116ed816116b1565b9050919050565b7f52657665616c2074696d652068617320656e6465640000000000000000000000600082015250565b600061172a6015836115e5565b9150611735826116f4565b602082019050919050565b600060208201905081810360008301526117598161171d565b9050919050565b6000819050919050565b61177b611776826110ee565b611760565b82525050565b6000819050919050565b61179c611797826112d1565b611781565b82525050565b60006117ae828561176a565b6020820191506117be828461178b565b6020820191508190509392505050565b7f496e636f7272656374206269642072657665616c000000000000000000000000600082015250565b60006118046014836115e5565b915061180f826117ce565b602082019050919050565b60006020820190508181036000830152611833816117f7565b9050919050565b600081519050611849816110c2565b92915050565b60006020828403121561186557611864611086565b5b60006118738482850161183a565b91505092915050565b7f4e6f7420746865204e4654206f776e6572000000000000000000000000000000600082015250565b60006118b26011836115e5565b91506118bd8261187c565b602082019050919050565b600060208201905081810360008301526118e1816118a5565b9050919050565b60006040820190506118fd60008301856113c7565b61190a60208301846113c7565b9392505050565b61191a816113d6565b811461192557600080fd5b50565b60008151905061193781611911565b92915050565b60006020828403121561195357611952611086565b5b600061196184828501611928565b91505092915050565b7f436f6e7472616374206d75737420626520617070726f76656420746f2074726160008201527f6e73666572204e46540000000000000000000000000000000000000000000000602082015250565b60006119c66029836115e5565b91506119d18261196a565b604082019050919050565b600060208201905081810360008301526119f5816119b9565b9050919050565b7f4e487b7100000000000000000000000000000000000000000000000000000000600052601160045260246000fd5b6000611a36826110ee565b91507fffffffffffffffffffffffffffffffffffffffffffffffffffffffffffffffff8203611a6857611a676119fc565b5b600182019050919050565b6000611a7e826110ee565b9150611a89836110ee565b9250828201905080821115611aa157611aa06119fc565b5b92915050565b7f52657665616c2074696d6520686173206e6f7420656e64656400000000000000600082015250565b6000611add6019836115e5565b9150611ae882611aa7565b602082019050919050565b60006020820190508181036000830152611b0c81611ad0565b9050919050565b7f41756374696f6e2068617320616c726561647920656e64656400000000000000600082015250565b6000611b496019836115e5565b9150611b5482611b13565b602082019050919050565b60006020820190508181036000830152611b7881611b3c565b9050919050565b7f4f6e6c79207468652073656c6c65722063616e20656e6420746865206175637460008201527f696f6e0000000000000000000000000000000000000000000000000000000000602082015250565b6000611bdb6023836115e5565b9150611be682611b7f565b604082019050919050565b60006020820190508181036000830152611c0a81611bce565b9050919050565b6000606082019050611c2660008301866113c7565b611c3360208301856113c7565b611c406040830184611164565b949350505050565b6000604082019050611c5d60008301856113c7565b611c6a6020830184611164565b9392505050565b7f5265656e7472616e637947756172643a207265656e7472616e742063616c6c00600082015250565b6000611ca7601f836115e5565b9150611cb282611c71565b602082019050919050565b60006020820190508181036000830152611cd681611c9a565b905091905056fea26469706673582212208e761cde992a4cff4e097aaa218d4426b3e4c3487844545b48e1566e377c25ed64736f6c63430008130033",
  "linkReferences": {},
  "deployedLinkReferences": {}
}